:100000000C9463000C948B000C948B000C94F806F9
:100010000C94F8060C94F8060C948B000C948B004E
:100020000C948B000C948B000C948B000C948B0024
:100030000C948B000C948B000C948B000C948B0014
:100040000C94AE060C948B000C947C060C94560613
:100050000C948B000C948B000C948B000C948B00F4
:100060000C948B000C948B000000000024002700EF
:100070002A0000000008000201000003040700003D
:1000800000000000000000000000230026002900FE
:1000900000000000250028002B00040404040404D0
:1000A0000404020202020202030303030303010227
:1000B00004081020408001020408102001020408F6
:1000C00010207007D00A11241FBECFEFD8E0DEBF8A
:1000D000CDBF23E0AEE4B2E001C01D92AF3BB2075A
:1000E000E1F712E0A0E0B1E0E4EAFFE102C0059030
:1000F0000D92AE34B107D9F710E0C2E6D0E004C0EB
:100100002197FE010E94CD0DC136D107C9F70E948B
:100110007B080C94C50F0C940000FC01538D448D9A
:10012000252F30E0842F90E0821B930B541710F0A2
:10013000CF96089501970895FC01918D828D9817AF
:1001400061F0A28DAE0FBF2FB11D5D968C91928D87
:100150009F5F9F73928F90E008958FEF9FEF0895B8
:10016000FC01918D828D981731F0828DE80FF11D81
:10017000858D90E008958FEF9FEF0895FC01918D9C
:10018000228D892F90E0805C9F4F821B91098F7395
:1001900099270895FC01A48DA80FB92FB11DA35A6A
:1001A000BF4F2C91848D90E001968F739927848F97
:1001B000A689B7892C93A089B1898C9183708064BA
:1001C0008C93938D848D981306C00288F389E02D5B
:1001D00080818F7D80830895EF92FF920F931F930C
:1001E000CF93DF93EC0181E0888F9B8D8C8D9813EA
:1001F0001AC0E889F989808185FF15C09FB7F894F6
:10020000EE89FF896083E889F98980818370806441
:1002100080839FBF81E090E0DF91CF911F910F918C
:10022000FF90EF900895F62E0B8D10E00F5F1F4F9B
:100230000F731127E02E8C8D8E110CC00FB607FCAA
:10024000FACFE889F989808185FFF5CFCE010E9438
:10025000CA00F1CFEB8DEC0FFD2FF11DE35AFF4FDC
:10026000F0829FB7F8940B8FEA89FB8980818062C6
:10027000CFCFCF93DF93EC01888D8823B9F0AA8983
:10028000BB89E889F9898C9185FD03C0808186FD51
:100290000DC00FB607FCF7CF8C9185FFF2CF8081A0
:1002A00085FFEDCFCE010E94CA00E9CFDF91CF914B
:1002B000089581EB92E00E94BE0021E0892B09F4B1
:1002C00020E0822F089580E090E0892B29F00E94A1
:1002D000590181110C9400000895AF92BF92CF9202
:1002E000DF92EF92FF920F931F93CF93DF936C01F6
:1002F0007B018B01040F151FEB015E01AE18BF08D7
:10030000C017D10759F06991D601ED91FC91019088
:10031000F081E02DC6010995892B79F7C501DF91A0
:10032000CF911F910F91FF90EF90DF90CF90BF90F2
:10033000AF900895833081F028F4813099F08230B5
:10034000A9F008958730A9F08830C9F08430B1F45D
:10035000809180008F7D03C0809180008F77809393
:100360008000089584B58F7784BD089584B58F7D0E
:10037000FBCF8091B0008F778093B000089580917B
:10038000B0008F7DF9CFCF93DF93282F30E0F901B4
:10039000EE58FF4F8491F901E255FF4FD491F901D6
:1003A000E656FF4FC491CC23A1F081110E949A011F
:1003B000EC2FF0E0EE0FFF1FEA57FF4FA591B4912D
:1003C000EC91ED2381E090E009F480E0DF91CF91A2
:1003D000089580E090E0FACF1F93CF93DF93282F0A
:1003E00030E0F901EE58FF4F8491F901E255FF4FDB
:1003F000D491F901E656FF4FC491CC23A9F0162FF2
:1004000081110E949A01EC2FF0E0EE0FFF1FE057E0
:10041000FF4FA591B4918FB7F894EC91111108C0DA
:10042000D095DE23DC938FBFDF91CF911F9108958C
:10043000DE2BF8CFCF93DF9390E0FC01E255FF4F26
:10044000249186569F4FFC0184918823D1F090E03F
:10045000880F991FFC01E859FF4FA591B491FC0149
:10046000E057FF4FC591D49161110EC09FB7F8942A
:100470008C91E22FE0958E238C932881E223E883F0
:100480009FBFDF91CF9108958FB7F894EC91E22B45
:10049000EC938FBFF6CF3FB7F89480919302909181
:1004A0009402A0919502B091960226B5A89B05C032
:1004B0002F3F19F00196A11DB11D3FBFBA2FA92FE3
:1004C000982F8827BC01CD01620F711D811D911DE0
:1004D00042E0660F771F881F991F4A95D1F708954C
:1004E0008F929F92AF92BF92CF92DF92EF92FF9244
:1004F0004B015C010E944B026B017C010E944B028C
:100500006C197D098E099F09683E7340810591052C
:10051000A8F328EEC20E23E0D21EE11CF11C8A943F
:1005200089288A288B2829F0812C912C54018394C6
:10053000E5CFFF90EF90DF90CF90BF90AF909F906E
:100540008F90089508952091990230919A0228176A
:10055000390771F49091970280919802981741F0B1
:10056000E0919702F0E0E25BFD4F808190E008951A
:100570008FEF9FEF08950895EF92FF920F931F93CF
:10058000CF93DF93DC015C96ED90FC905D97E114D6
:10059000F10479F481E090E013969C938E93129786
:1005A00090E080E0DF91CF911F910F91FF90EF904D
:1005B00008955196ED91FC91529750968C915097D9
:1005C000982F90950FB75E962C915E97122F127010
:1005D00021FD6095F8942081112319F1282B2083A7
:1005E000E7012197F1F728E0462F50E0308160FFC6
:1005F0001AC0382B3083E7012197F1F7BA017595BE
:100600006795215089F7112381F0808189238083A8
:100610000FBF5C968D919C910197F1F781E090E07E
:10062000C1CF2923DCCF3923E5CF9081892BEFCFB0
:100630002091990230919A022817390771F480911C
:1006400098022091970290E0805C9F4F821B910955
:1006500060E470E00E94830D089590E080E00895CA
:100660002091990230919A0228173907B9F4909194
:10067000970280919802981789F0E0919702F0E034
:10068000E25BFD4F80812091970230E02F5F3F4F6A
:100690002F7333272093970290E008958FEF9FEFF9
:1006A000089590E080E00895CF93DF93EC0160E03F
:1006B0008E810E94EC0161E08E810E94EC0160E07D
:1006C0008E810E94EC018BE891E00197F1F7DF91B8
:1006D000CF910895CF92DF92EF92FF920F931F93E5
:1006E000CF93DF936C017C0187E0E80EF11CD0E032
:1006F000C0E0062F10E0B8010C2E02C0759567957A
:100700000A94E2F76170F70181917F010E94EC0188
:100710002196C430D10579F7C601DF91CF911F91A1
:100720000F91FF90EF90DF90CF900C945403CF92F5
:10073000DF92EF92FF920F931F93CF93DF93EC0121
:10074000F62E642F8C810E94EC018D818F3F19F071
:1007500060E00E94EC010F2D10E08F8584FF25C022
:100760006E0187E0C80ED11CF12CE12CB8010E2CD3
:1007700002C0759567950A94E2F76170F601819160
:100780006F010E94EC01FFEFEF1AFF0A88E0E81604
:10079000F10461F7CE01DF91CF911F910F91FF908E
:1007A000EF90DF90CF900C945403B80184E07595DE
:1007B00067958A95E1F7CE010E946A036F2DCE01FD
:1007C000DF91CF911F910F91FF90EF90DF90CF902D
:1007D0000C946A0340E0682F84E893E00C9497033C
:1007E00081E00E94EA038BE39FE10197F1F708950E
:1007F000CF93DF93823029F4909193039860909384
:100800009303809397031092980380E48093990355
:1008100080E180939A0380E580939B0361E080915F
:1008200088030E941A02809189038F3F19F061E0CA
:100830000E941A0261E080918A030E941A02C4E8B1
:10084000D3E09E01245833408091930384FD0BC074
:1008500084E090E021962817390744F461E08E8106
:100860000E941A02EECF88E090E0F4CF8BE39DE087
:100870000197F1F760E0809188030E94EC0160E04D
:1008800080918A030E94EC01809189038F3F19F0C7
:1008900060E00E94EC018091930384FD34C063E02A
:1008A00084E893E00E946A03CBE4D6E4CE0101978A
:1008B000F1F763E084E893E00E946A032197F1F77F
:1008C00063E084E893E00E946A0383E592E0019785
:1008D000F1F762E084E893E00E946A038091930359
:1008E00080620E94EA0384E0809394038CE00E947B
:1008F000EA030E94F00382E08093950386E0DF9193
:10090000CF910C94EA0380620E94EA038BE496E4A0
:100910000197F1F78091930380620E94EA0383E5D7
:1009200092E00197F1F78091930380620E94EA03BD
:10093000D5CF90919703691710F06FEF690FE62FED
:10094000F0E0EC57FC4F9489890F80680C94EA031F
:1009500041E00E94970381E090E00895FC0101903E
:100960000020E9F73197AF01481B590BBC0184E81F
:1009700093E00C946D018F929F92AF92BF920F9370
:100980001F93CF93DF93CDB7DEB7A1970FB6F8943F
:10099000DEBF0FBECDBF19A2423008F44AE08E017F
:1009A0000F5D1F4F842E912CB12CA12CA501940119
:1009B0000E94970DE62FB901CA01EA30F4F4E05D18
:1009C000D801EE938D01232B242B252B79F790E072
:1009D00080E0109719F0CD010E94AE04A1960FB6E9
:1009E000F894DEBF0FBECDBFDF91CF911F910F9165
:1009F000BF90AF909F908F900895E95CE1CFCF9228
:100A0000DF92EF92FF926C01990FEE08FF08F7FE5C
:100A100016C041E06DE284E893E00E9497036627E8
:100A20007727CB016C197D098E099F094AE00E9446
:100A3000BB040196FF90EF90DF90CF9008954AE0BD
:100A4000C701B601FF90EF90DF90CF900C94BB04EC
:100A50000C94AE044F925F926F927F928F929F920E
:100A6000AF92BF92CF92DF92EF92FF920F931F93BC
:100A7000CF936B017C01742EAC019B010E947E0D13
:100A8000882399F086E591E0CF911F910F91FF9017
:100A9000EF90DF90CF90BF90AF909F908F907F901E
:100AA0006F905F904F900C94AE0446015701E8940C
:100AB000B7F82FEF3FEF4FE75FE7C501B4010E94A2
:100AC0007E0D81110DC02FEF3FEF4FE75FE7C501AE
:100AD000B4010E94100B18161CF48AE591E0D4CFE3
:100AE0002FEF3FEF4FE75FE4C701B6010E94790D9A
:100AF00018161CF48EE591E0C7CF2FEF3FEF4FE7BC
:100B00005FECC701B6010E94100B87FDF3CF20E018
:100B100030E0A901C701B6010E94100B10E000E00F
:100B200087FF0CC041E06DE284E893E00E949703E8
:100B3000F7FAF094F7F8F09401E010E0C0E060E01C
:100B400070E080E09FE37C1641F020E030E040E27E
:100B500051E40E94D80CCF5FF6CFA70196010E9406
:100B60006C0C4B015C010E944A0D2B013C014AE0D8
:100B70000E94BB04080F191FCC23C9F1C301B201A5
:100B80000E94150B9B01AC01C501B4010E946B0CC6
:100B90004B015C0141E06EE284E893E00E94970320
:100BA0000F5F1F4FC15018F120E030E040E251E4E8
:100BB000C501B4010E94760B2B013C010E944A0D35
:100BC0004B01B12CA12C4AE0C501B4010E94BB0429
:100BD000080F191FC501B4010E94150B9B01AC0140
:100BE000C301B2010E946B0C4B015C01DBCFC80159
:100BF000CF911F910F91FF90EF90DF90CF90BF901A
:100C0000AF909F908F907F906F905F904F900895DE
:100C1000FC01808191810C946F0EEF92FF920F93F3
:100C20001F93CF93DF93EC017B01198218821B8203
:100C30001A821D821C82FB0101900020E9F7319786
:100C40008F01061B170BB8016F5F7F4F90E080E0AC
:100C50000E94F80E0097B9F0998388831B830A835A
:100C60002C813D81232B11F4FC0110821D830C8308
:100C7000B70188819981DF91CF911F910F91FF90EA
:100C8000EF900C94BE0F88819981009711F00E941B
:100C90006F0E198218821D821C821B821A82DF91BC
:100CA000CF911F910F91FF90EF9008951F920F9297
:100CB0000FB60F9211242F933F934F935F936F932F
:100CC0007F938F939F93AF93BF93EF93FF9381EBAA
:100CD00092E00E94CA00FF91EF91BF91AF919F9166
:100CE0008F917F916F915F914F913F912F910F90D5
:100CF0000FBE0F901F9018951F920F920FB60F9274
:100D000011242F938F939F93EF93FF93E091C10250
:100D1000F091C2028081E091C702F091C80282FD89
:100D20001BC090818091CA028F5F8F732091CB028C
:100D3000821741F0E091CA02F0E0EF54FD4F958F29
:100D40008093CA02FF91EF919F918F912F910F9005
:100D50000FBE0F901F9018958081F4CF1F920F92B5
:100D60000FB60F9211242F933F938F939F93AF93BE
:100D7000BF9380918F0290919002A0919102B091C7
:100D8000920230918E0223E0230F2D3758F5019601
:100D9000A11DB11D20938E0280938F02909390022B
:100DA000A0939102B0939202809193029091940249
:100DB000A0919502B09196020196A11DB11D80935C
:100DC000930290939402A0939502B0939602BF91E0
:100DD000AF919F918F913F912F910F900FBE0F90E8
:100DE0001F90189526E8230F0296A11DB11DD2CFA2
:100DF0001F920F920FB60F9211242F933F934F9390
:100E00005F936F937F938F939F93AF93BF93EF9372
:100E1000FF93E0919902F0919A02309749F0A685EC
:100E2000B7858585968D91FF14C09C918923A1F487
:100E3000FF91EF91BF91AF919F918F917F916F91B2
:100E40005F914F913F912F910F900FBE0F901F9088
:100E500018959C91892361F7A389B4899C91858910
:100E6000809589238C93868997890197F1F7608D06
:100E7000718DA685B785558538E020E0CB010197B7
:100E8000F1F7822F90E095958795282F4C91452377
:100E900009F02068315091F7868D81FD2095809171
:100EA000980290E001968F73992730919702381736
:100EB00099F0A0919802B0E0A25BBD4F2C93809373
:100EC0009802828D938D0197F1F7A389B4898C9153
:100ED0009589892B8C93ACCF868D8160868FF1CFDD
:100EE0001092B4021092B30288EE93E0A0E0B0E05A
:100EF0008093B5029093B602A093B702B093B80264
:100F00002AE231E03093B2022093B10225EC30E0C6
:100F10003093BE022093BD0224EC30E03093C00237
:100F20002093BF0220EC30E03093C2022093C10234
:100F300021EC30E03093C4022093C30222EC30E075
:100F40003093C6022093C50226EC30E03093C802ED
:100F50002093C7021092CA021092CB021092CC02C8
:100F60001092CD0210929F0310929E038093A003D3
:100F70009093A103A093A203B093A30388E491E00C
:100F800090939D0380939C031092B3031092B2033D
:100F90001092B5031092B4031092B7031092B603E7
:100FA0001092B9031092B8036091BA036E7F6D7FFF
:100FB0006093BA036695617081E0682783E00E94C0
:100FC000EC0161E083E00E941A02E1EBF0E0E491C1
:100FD000E093AC03EDE9F0E0E491F0E0EE0FFF1FE9
:100FE000E057FF4F859194919093AE038093AD03AA
:100FF00060E082E00E941A028091BA0381FD04C081
:1010000061E082E00E94EC0182E08093A803E0EBC3
:10101000F0E0E491E093A903ECE9F0E0E491F0E082
:10102000EE0FFF1FEA57FF4F259134913093AB032A
:101030002093AA0310928703109286032CE331E0D9
:10104000309385032093840397E0909388039FEF68
:101050009093890396E090938A0395E090938B0395
:1010600094E090938C0393E090938D0380938E0390
:1010700010928F031092900310929103109292039A
:101080001092930381E00E94F80362E671E08EE71C
:1010900093E00E940D0667E771E088E793E00E9405
:1010A0000D066CEC71E082E793E00E940D066CE89F
:1010B00071E08CE693E00E940D0660EA71E086E63E
:1010C00093E00E940D066CEA71E080E693E00E94D6
:1010D0000D066CEC71E08AE593E00E940D066CEC65
:1010E00071E084E593E00E940D066CEC71E08EE403
:1010F00093E00C940D06789484B5826084BD84B529
:10110000816084BD85B5826085BD85B5816085BD02
:1011100080916E00816080936E00109281008091BA
:101120008100826080938100809181008160809342
:101130008100809180008160809380008091B10067
:1011400084608093B1008091B00081608093B00092
:1011500080917A00846080937A0080917A00826026
:1011600080937A0080917A00816080937A008091E8
:101170007A00806880937A001092C10082E00E9419
:10118000F8030E94F00360E088E00E941A0260E029
:1011900089E00E941A0260E08AE00E941A0260E080
:1011A0008BE00E941A021092B7031092B6031092BD
:1011B000B5031092B4031092B3031092B2038DE9F9
:1011C00091E09093B9038093B8039091A80396316E
:1011D00008F047C02DEB30E03093B3032093B20307
:1011E0002BE931E03093B5032093B4032CE231E0D6
:1011F0003093B7032093B6032091680084E09830C1
:1012000048F031E09E3008F430E081E001C0880F02
:101210003A95EAF7822B809368002DE630E098300B
:1012200050F02BE630E09E3030F02CE630E0963186
:1012300010F030E020E03093B0032093AF03292F6B
:1012400030E0983008F09FC181E001C0880F9A9586
:10125000EAF78093B1038091B8039091B9030197A5
:10126000F1F78091B6039091B703892B49F1E09192
:101270009902F0919A0283E0EC39F80709F130976E
:1012800039F0A389B4899C918589809589238C93B1
:101290008091BA038E7F8093BA03109298021092C5
:1012A00097028CE993E090939A0280939902E091DF
:1012B000AF03F091B00380819091B103892B8083BB
:1012C00082E00E94F8038EEB91E00E94280561E025
:1012D00080E00E9499048DEC91E00E94280562E074
:1012E00070E080E090E00E9470020E94F00387EDC1
:1012F00091E00E9428050E94F00388EE91E00E9490
:1013000028050E94F0038AEF91E00E94280562E020
:1013100070E080E090E00E9470028091AF029091B6
:10132000B0029093AE028093AD0260E080E00E9434
:10133000990487E092E00E94280588E00E94C3019A
:101340009093AC028093AB020E94FF048091AB02A9
:101350009091AC02D0E0C0E0892B91F48091AD0275
:101360009091AE02FC01EE0FFF1FED55FD4F118273
:10137000108201969093AE028093AD02C1E0D0E05E
:1013800060E089E00E9499048EE092E00E942805C6
:1013900089E00E94C3019093A2028093A1020E945F
:1013A000FF048091A1029091A202892B99F480916F
:1013B000AD029091AE02FC01EE0FFF1FED55FD4F07
:1013C00021E030E03183208301969093AE02809338
:1013D000AD02219661E080E00E94990485E192E0EF
:1013E0000E9428058AE00E94C3019093A002809386
:1013F0009F020E94FF0480919F029091A002892B7E
:1014000099F48091AD029091AE02FC01EE0FFF1FA6
:10141000ED55FD4F22E030E031832083019690931B
:10142000AE028093AD02219661E089E00E949904AA
:101430008CE192E00E9428058BE00E94C30190930A
:101440009E0280939D020E94FF0461E070E080E0B4
:1014500090E00E94700280919D0290919E02892BE3
:1014600099F48091AD029091AE02FC01EE0FFF1F46
:10147000ED55FD4F23E030E03183208301969093BA
:10148000AE028093AD022196D0939C02C0939B0242
:101490008091AD029091AE0201969093B00280933C
:1014A000AF020E94F003809194038D7F8093940398
:1014B00088600E94EA0380919403982F9260909331
:1014C00094038A600E94EA030E94F00380919403CF
:1014D0008E7F8093940388600E94EA0383E292E007
:1014E0000E94280561E080E00E94990480E392E078
:1014F0000E94280593EAE92E92E0F92E10E000E020
:1015000080919B0290919C0208171907A4F6F7019D
:10151000C191D1917F010E94F00360E080E00E94C0
:1015200099048AE392E00E942805CC0FDD1FCC0FBE
:10153000DD1FFE01EA5EFE4F608171818281938131
:1015400042E00E942A0561E070E080E090E00E94A5
:10155000700261E080E00E94990484E492E00E94BD
:101560002805CA5FDE4F688179818A819B8142E0CC
:101570000E942A0561E070E080E090E00E94700225
:101580000F5F1F4FBDCF9E3040F42850310981E0DE
:1015900001C0880F2A95EAF75CCE2E503109F7CFAB
:1015A0008EE493E00E94080684E593E00E9408061A
:1015B0008AE593E00E94080680E693E00E94080610
:1015C00086E693E00E9408068CE693E00E940806F7
:1015D00082E793E00E94080688E793E00E940806ED
:1015E0008EE793E00E94080688E491E090939D03C3
:1015F00080939C038091990290919A028C59934018
:1016000071F4E091AF03F091B00390818091B10348
:1016100080958923808310929A02109299020895EE
:101620000E94520B08F481E00895E89409C097FBEA
:101630003EF490958095709561957F4F8F4F9F4FA9
:101640009923A9F0F92F96E9BB279395F6958795ED
:1016500077956795B795F111F8CFFAF4BB0F11F4B0
:1016600060FF1BC06F5F7F4F8F4F9F4F16C0882357
:1016700011F096E911C0772321F09EE8872F762F8D
:1016800005C0662371F096E8862F70E060E02AF0CE
:101690009A95660F771F881FDAF7880F96958795BA
:1016A00097F90895990F0008550FAA0BE0E8FEEF8F
:1016B00016161706E807F907C0F012161306E40716
:1016C000F50798F0621B730B840B950B39F40A260F
:1016D00061F0232B242B252B21F408950A2609F4ED
:1016E000A140A6958FEF811D811D08950E94890B51
:1016F0000C94FA0B0E94EC0B38F00E94F30B20F0D4
:10170000952311F00C94E30B0C94E90B11240C9429
:101710002E0C0E940B0C70F3959FC1F3950F50E0B7
:10172000551F629FF001729FBB27F00DB11D639F93
:10173000AA27F00DB11DAA1F649F6627B00DA11D39
:10174000661F829F2227B00DA11D621F739FB00DDF
:10175000A11D621F839FA00D611D221F749F33274F
:10176000A00D611D231F849F600D211D822F762FE8
:101770006A2F11249F5750409AF0F1F088234AF0C5
:10178000EE0FFF1FBB1F661F771F881F9150504031
:10179000A9F79E3F510580F00C94E30B0C942E0C9E
:1017A0005F3FE4F3983ED4F3869577956795B795B8
:1017B000F795E7959F5FC1F7FE2B880F911D9695D2
:1017C000879597F9089597F99F6780E870E060E042
:1017D00008959FEF80EC089500240A9416161706CA
:1017E00018060906089500240A9412161306140612
:1017F00005060895092E0394000C11F4882352F075
:10180000BB0F40F4BF2B11F460FF04C06F5F7F4F2C
:101810008F4F9F4F089557FD9058440F551F59F013
:101820005F3F71F04795880F97FB991F61F09F3FCD
:1018300079F087950895121613061406551FF2CFF6
:101840004695F1DF08C0161617061806991FF1CF46
:1018500086957105610508940895E894BB2766276D
:101860007727CB0197F908952F923F924F925F927D
:101870006F927F928F929F92AF92BF92CF92DF92A0
:10188000EF92FF920F931F93CF93DF93CDB7DEB705
:10189000CA1BDB0B0FB6F894DEBF0FBECDBF099499
:1018A0002A88398848885F846E847D848C849B84F0
:1018B000AA84B984C884DF80EE80FD800C811B81FE
:1018C000AA81B981CE0FD11D0FB6F894DEBF0FBE2D
:1018D000CDBFED0108955058BB27AA270E94830C65
:1018E0000C94FA0B0E94EC0B38F00E94F30B20F0E2
:1018F00039F49F3F19F426F40C94E90B0EF4E095AB
:10190000E7FB0C94E30BE92F0E940B0C58F3BA177A
:10191000620773078407950720F079F4A6F50C9405
:101920002D0C0EF4E0950B2EBA2FA02D0B01B90152
:1019300090010C01CA01A0011124FF27591B99F045
:10194000593F50F4503E68F11A16F040A22F232F51
:10195000342F4427585FF3CF469537952795A795A1
:10196000F0405395C9F77EF41F16BA0B620B730B48
:10197000840BBAF09150A1F0FF0FBB1F661F771FB9
:10198000881FC2F70EC0BA0F621F731F841F48F46E
:10199000879577956795B795F7959E3F08F0B0CFF7
:1019A0009395880F08F09927EE0F979587950895DE
:1019B0000E94EC0C0C94FA0B0E94F30B58F00E945E
:1019C000EC0B40F029F45F3F29F00C94E30B51112C
:1019D0000C942E0C0C94E90B0E940B0C68F39923C9
:1019E000B1F3552391F3951B550BBB27AA2762171B
:1019F0007307840738F09F5F5F4F220F331F441F28
:101A0000AA1FA9F335D00E2E3AF0E0E832D091505B
:101A10005040E695001CCAF72BD0FE2F29D0660F48
:101A2000771F881FBB1F261737074807AB07B0E88B
:101A300009F0BB0B802DBF01FF2793585F4F3AF091
:101A40009E3F510578F00C94E30B0C942E0C5F3FF5
:101A5000E4F3983ED4F3869577956795B795F79517
:101A60009F5FC9F7880F911D9695879597F90895FF
:101A7000E1E0660F771F881FBB1F6217730784079B
:101A8000BA0720F0621B730B840BBA0BEE1F88F7AA
:101A9000E09508950E94130C88F09F5798F0B92F95
:101AA0009927B751B0F0E1F0660F771F881F991F93
:101AB0001AF0BA95C9F714C0B13091F00E942D0CFC
:101AC000B1E008950C942D0C672F782F8827B85F0C
:101AD00039F0B93FCCF3869577956795B395D9F7EB
:101AE0003EF490958095709561957F4F8F4F9F4FF5
:101AF00008950E94520B08F48FEF08950E94520B34
:101B0000880B990B089597FB072E16F4009407D0C5
:101B100077FD09D00E94B90D07FC05D03EF49095E1
:101B200081959F4F0895709561957F4F0895A1E22B
:101B30001A2EAA1BBB1BFD010DC0AA1FBB1FEE1F47
:101B4000FF1FA217B307E407F50720F0A21BB30B92
:101B5000E40BF50B661F771F881F991F1A9469F70E
:101B600060957095809590959B01AC01BD01CF016A
:101B70000895AA1BBB1B51E107C0AA1FBB1FA617D4
:101B8000B70710F0A61BB70B881F991F5A95A9F726
:101B900080959095BC01CD010895EE0FFF1F059033
:101BA000F491E02D09940F931F93CF93DF9382302C
:101BB000910510F482E090E0E091BD03F091BE0346
:101BC00030E020E0B0E0A0E0309799F42115310535
:101BD00009F44AC0281B390B24303105D8F58A8115
:101BE0009B816115710589F1FB0193838283FE015D
:101BF00011C0408151810281138148175907E0F0DB
:101C00004817590799F4109761F012960C931297A0
:101C100013961C933296CF01DF91CF911F910F91B4
:101C200008950093BD031093BE03F4CF2115310531
:101C300051F04217530738F0A901DB019A01BD01A9
:101C4000DF01F801C1CFEF01F9CF9093BE0380937C
:101C5000BD03CDCFFE01E20FF31F8193919322507C
:101C6000310939832883D7CF2091BB033091BC033E
:101C7000232B41F420910201309103013093BC03E6
:101C80002093BB0320910001309101012115310502
:101C900041F42DB73EB74091040150910501241B3A
:101CA000350BE091BB03F091BC03E217F307A0F4FE
:101CB0002E1B3F0B2817390778F0AC014E5F5F4FA2
:101CC0002417350748F04E0F5F1F5093BC03409315
:101CD000BB03819391939FCFF0E0E0E09CCFCF9343
:101CE000DF930097E9F0FC01329713821282A091F2
:101CF000BD03B091BE03ED0130E020E01097A1F4E8
:101D000020813181820F931F2091BB033091BC034E
:101D10002817390709F061C0F093BC03E093BB03B7
:101D2000DF91CF910895EA01CE17DF07E8F54A81E8
:101D30005B819E0141155105B1F7E901FB83EA83FF
:101D400049915991C40FD51FEC17FD0761F48081AB
:101D500091810296840F951FE9019983888382817E
:101D600093819B838A83F0E0E0E012968D919C91B1
:101D700013970097B9F52D913C911197CD010296DB
:101D8000820F931F2091BB033091BC0328173907A2
:101D900039F6309751F51092BE031092BD03B093FF
:101DA000BC03A093BB03BCCFD383C28340815181CA
:101DB000840F951FC817D90761F44E5F5F4F888164
:101DC0009981480F591F518340838A819B81938356
:101DD00082832115310509F0B0CFF093BE03E09363
:101DE000BD039ECFFD01DC01C0CF13821282D7CF8D
:101DF000B0E0A0E0EEEFFEE00C94360C8C01009712
:101E000051F4CB010E94D30D8C01C801CDB7DEB7D0
:101E1000E0E10C94520CFC01E60FF71F9C012250EC
:101E20003109E217F30708F49DC0D901CD91DC9187
:101E30001197C617D70798F0C530D10530F3CE01FA
:101E400004978617970708F3C61BD70B2297C193F1
:101E5000D1936D937C93CF010E946F0ED6CF5B011F
:101E6000AC1ABD0A4C018C0E9D1EA091BD03B09111
:101E7000BE03512C412CF12CE12C109731F58091AF
:101E8000BB039091BC038815990509F05CC0461608
:101E9000570608F058C08091000190910101009709
:101EA00041F48DB79EB74091040150910501841B08
:101EB000950BE817F90708F055C0F093BC03E093C1
:101EC000BB03F90171836083A0CF8D919C91119721
:101ED00012966C90129713967C901397A815B905DB
:101EE00059F56C0142E0C40ED11CCA14DB0420F188
:101EF000AC014A195B09DA011296159780F06282EB
:101F0000738251834083D9016D937C93E114F10472
:101F100071F0D7011396FC93EE93129776CF229629
:101F20008C0F9D1FF90191838083F301EFCFF09314
:101F3000BE03E093BD0369CF4816590608F42C018F
:101F40007D01D3019ACFCB010E94D30D7C01009774
:101F500049F0AE01B8010E94B50FC8010E946F0E92
:101F6000870153CF10E000E050CFFB01DC0102C03D
:101F700001900D9241505040D8F70895FB01DC01CB
:101F800001900D920020E1F7089510E0C2E6D0E044
:101F900004C0FE010E94CD0D2196C336D107C9F7BA
:041FA000F894FFCFE3
:101FA4000000BF0380009A99D9400000AC41CDCC19
:101FB400BC406666D6406666B6406666A241666602
:101FC40006413333F33F00000000EC006D018D0047
:101FD4003901BE009C00B00000000000A8046D019F
:101FE4005103A20200000000BC026D015103BB02B8
:101FF40018033003A3026E616E00696E66006F768B
:10200400660077593944504735767A704839394BE8
:102014004E724E6B78320077356E58784D3672704A
:1020240030747777355956596733470022646174A1
:10203400612E737061726B66756E2E636F6D220014
:1020440041542B43495053454E443D0041542B4386
:10205400495053544152543D225443502200536535
:102064006E64696E672044617461202000746F207F
:1020740053657276657200496E697469616C697A38
:10208400696E672047534D00496E697469616C69D4
:102094007A696E6720475052530053797374656DA3
:1020A4002052656164790042756C62313A00427570
:1020B4006C62323A0042756C62333A0042756C626B
:1020C400343A0053656E64696E672044617461003C
:1020D400546F20536572766572006C61746974750F
:0E20E40064653A006C6F6E6769747564650020
:00000001FF
